:10000000FC7F002039060000290600002D060000B4
:1000100000000000000000000000000000000000E0
:100020000000000000000000000000003106000099
:100030000000000000000000350600004908000034
:1000400010B5064C2378002B07D1054B002B02D0AE
:10005000044800E000BF0123237010BD5C000020B5
:1000600000000000581C000008B5084B002B03D00E
:100070000748084900E000BF07480368002B03D089
:10008000064B002B00D0984708BDC046000000007A
:10009000581C0000600000205800002000000000F4
:1000A0001A4B1B78002B0AD1194B1A781949097879
:1000B0008A18D2B21A7080229202174BDA61134B5F
:1000C0001A780132D2B21A70114B1B78DBB2F02BC6
:1000D00004D80F4B1B78DBB2092B0AD80D4B1A78CA
:1000E0005242D2B21A700A4A11781B785B18DBB2FE
:1000F0001370064B1A78064B1B78D2B29A4203D182
:1001000080229202044BDA617047C04678000020DA
:100110000100002000000020004400410122037E75
:100120001A42FCD0018570470122037E9B081A42C7
:10013000FBD0438BDA0705D4438B9A0702D4438B59
:100140005A0702D50122024B1A70008DC0B27047C7
:1001500079000020F8B5041C03689A8B11072DD58F
:1001600008229A8380229A721120802149005854D3
:1001700040200621FF315854822149005A54144A24
:100180005768144E3740C025AD052F435760576957
:100190003E4035435561104D1560104D1561566850
:1001A0000F4D35408026B602354355605568AD0B7E
:1001B000AD03556058540023237106E00822FF3236
:1001C0009B5CDA0601D500F081FB2079F8BDC046C2
:1001D00098010020FFFFFF8F9800002018010020E9
:1001E000FF3F00F00160002303714371034B836004
:1001F0000A78022313430B707047C0465501000074
:1002000010B5394BD96920220A43DA61374B58229D
:10021000995C0120014399543C22995C0F24A1432D
:1002200099549C5C06212143995459215C5C2043DC
:100230005854985C0F2101409954985C6021014307
:1002400099542B4A2B4B5A801A1C53785BB2002BC3
:10025000FBDB294B197801220A431A70191C012271
:100260008B781A42FCD1254B1B689B03DB0E1F2B9E
:1002700000D10523204A9901108D214B03400B43E7
:1002800013851E4B1B685B02DB0E1F2B00D11D2349
:10029000194A118D1F2081430B431385174B1A6890
:1002A0009201520F072A00D10322134B1103188D1C
:1002B000144A02400A431A851A787F210A401A70AC
:1002C000197804220A431A700F4858621A890C21BF
:1002D0008A431A811A8901218A431A8100218022C6
:1002E00001F031FB10BDC046000400400044004155
:1002F00006400000000C00400050004124608000D7
:100300003FF8FFFFFF8FFFFF98010020F0B5474641
:1003100080B4041C171C1E1C1D1C5B01224AD31830
:1003200010335B685B005B0F033301229A40BA42D3
:1003300008D873011C4AD318586980221206024358
:100340005A610BE0321C531E9A419201174BD2188E
:100350009046101C3A1C01F0EDFA41467301124A16
:10036000D218131C1161B904890C5269920B9203C3
:100370000A435A6159690E4A0A405A6108367601A1
:10038000A6190223F371727980235B4213437371C0
:1003900008356D0101216319DB795B081942FAD038
:1003A000381C04BC9046F0BD9801002018010020C4
:1003B000FF3F00F038B5051C141C1B4B1B78002BAD
:1003C00013D11A4B1A4A1A645A6C920B92035A644C
:1003D000586C184A02405A64A2235B00E85C402231
:1003E0000243EA540122104B1A704823FF33EB5C9E
:1003F000DA0716D50D4B5B6C9B049B0CA34203D212
:100400000A4B5C6CA404A40C081C0949221C01F0D2
:1004100091FA01224823FF33EA540022024B1A705A
:1004200000E00024201C38BD7A0000209801002044
:10043000D8000020FF3F00F0002906D00623FF333C
:10044000C15C20220A43C25405E00623FF33C15C8D
:1004500010220A43C25470470B4B5A69920B920305
:100460005A6102220823FF33C2540623FF33C15CC2
:10047000802252420A43C2540821FF310122435CC8
:100480005B081A42FBD070479801002080235B4232
:100490001943C9B28172704770B50322A0235B0073
:1004A000C254134B5C6C134A1440C02189050C43A1
:1004B0005C6440244625FF3544550F4D1D643026AD
:1004C00090256D0046555D6B154029435963802189
:1004D00092256D004155094D1D63B0256D004455B1
:1004E0005C6F22405A67B2235B00C15470BDC046A6
:1004F00098010020FFFFFF8FD80000205801002046
:10050000404B5A681E218A4302210A435A603E4BDF
:10051000996908220A439A613C4B3D4A9A82998A1A
:1005200002220A439A82191C0222CB681A42FCD08A
:100530000122384B1A7001211A780A4203D05A78E6
:1005400052B2002AF8DB0122324B9A601A1C53780F
:100550005BB2002BFBDB304A2E4B5A601A1C5378DF
:100560005BB2002BFBDB8222D2012A4B5A801A1C81
:1005700053785BB2002BFBDB244B9A8C80218A439F
:100580009A84191C1022CB681A42FCD0234A1F4BB4
:10059000DA62191C1022CB681A42FCD01B4B998CD2
:1005A0001F4A0A439A84191C1022CB681A42FCD0B5
:1005B000164B998C02220A439A841A1C80214020EF
:1005C000D3681942FCD0D3681842F9D00F491022E1
:1005D000CB681A42FCD000220E4B9A601A1C53784A
:1005E0005BB2002BFBDB0F4A0A4B5A601A1C537894
:1005F0005BB2002BFBDB044B00221A725A729A7218
:10060000DA727047004000410004004000080040DA
:100610000C060000000C004001050100B805FF7D3C
:10062000040A0000000703000EBEFEE70DBEFEE751
:1006300005BEFEE702BEFEE710B5184B184A9A4207
:1006400016D0131C174A9A4212D0144B144A9A42DD
:100650000ED2154B11480330C01A800801308000BB
:100660000023111C0F4AD458CC5004338342FAD1D2
:100670000E4B0F4A9A420DD00CD20E4B0B49033150
:10068000C91A890801318900043BC918002204C332
:100690008B42FCD100F010F8FEE7C0465C00002061
:1006A000000000205C1C000004000020A8030020C3
:1006B0005C0000206000002070B5524A1168802361
:1006C000DB000B431360504B186850490140196020
:1006D0001068802149000143116010688021890061
:1006E0000143116019684A4A0A401A601968494A68
:1006F0000A401A60484B013B002BFCD1424B196861
:10070000802252000A431A60434B013B002BFCD16C
:100710003D4B19683F4A0A401A60404B1B68013341
:100720002ED03F4A3F4B1A60043AFF231A4227D18A
:1007300038233D49CB5CD90703D500213B4B1960D9
:1007400012E03A4B19683A4B994203D10022374BD9
:100750001A6015E03649354B1960364B013B002BCA
:10076000FCD10021314B19602C4B1B6883F30888A6
:10077000FF239A43304B9A602A4B1B681B6818472B
:10078000FFF7BEFE62B600F065F8041C1D4B802228
:1007900092029A60082288215A5098215A50802249
:1007A00012059A609A61254B254A5A60224A106ABE
:1007B0000002000AC02109060143116200229A606A
:1007C00007221A601F4E351C201CA2689047002883
:1007D00002D001231B490B703378002B05D0002079
:1007E00000F04CFB00F0EAFBFCE72B78002BEBD190
:1007F00000F0F6FE0028E7D0012000F03FFB00F0FB
:10080000DDFBFCE70044004110440041FFFBFFFF1B
:10081000FFFDFFFFFFFEFFFF90D003000020000060
:10082000042000001802002000040040FC7F00208B
:100830003581730748E8010000ED00E010E000E0BA
:10084000E70300007B00002008B5FFF729FC00F05B
:100850008DFB08BD10B5054C054B2360FFF7D0FCA0
:10086000201C2168FFF7BEFC201C10BD1C020020CC
:100870000050004170B5C0B0061C0C1C151C081CB3
:1008800001F069F8400002306A461070032353708B
:100890002378002B0ED06D08012D0DDD01220134CF
:1008A000510068460B5201322378002B05D0AA4232
:1008B000F5DB02E0012200E001225200301C694613
:1008C0000023FFF723FD40B070BDC046F0B583B0F4
:1008D000061C046810220823FF33E254C44B1A7824
:1008E000C44D2A705A78C4490A709878C34A108057
:1008F0001788D8780002384310801879C04A1080D1
:10090000178858790002384310809879BD4A1080C2
:100910001088DB791B0203431380402282235B0093
:10092000E2540B782A781B021343B74A934200D152
:1009300022E126DC80225200934200D152E1802243
:100940005200934209DC812B00D1CEE0822B00D1F2
:10095000D3E0802B00D0FDE1BFE081225200934222
:1009600000D16FE181225200934200DA66E1C02299
:100970009200934200D1F6E0A44A934200D1F7E0FE
:10098000E8E190221201934200D195E090221201F9
:1009900093420EDCD022D20093421DD08822120155
:1009A000934200D192E0A022D200934200D0D1E144
:1009B00078E0974A934200D1B2E104DC954A934231
:1009C00000D10FE1C6E1944A934200D1ACE1934AD1
:1009D000934200D1B7E1BDE1884B1B881B0A012B74
:1009E0000ED13068874B1B889BB21222122B02D883
:1009F000844B1A8892B28A490023FFF787FCADE145
:100A00007E4B1B881B0A022B0ED130687D4B1B8846
:100A10009BB24322432B02D87A4B1A8892B2814967
:100A20000023FFF773FC99E1744B1B881B0A032B0F
:100A300033D1724B1A88FF231340012B18D0002B9F
:100A400002D0022B1CD023E001A87749042200F039
:100A500071FF30686B4B1B889BB20422042B02D8B9
:100A6000684B1A8892B201A90023FFF74FFC75E189
:100A7000644B1A883068D2B26C49FFF7FBFE6DE117
:100A8000604B1A883068D2B26949FFF7F3FE65E11E
:100A9000201C0121FFF7D0FC60E1201C0121FFF7A1
:100AA000CBFC5BE1201CFFF7D7FC544B198889B2C3
:100AB0003068FFF7EBFC51E1504B1B883371201C71
:100AC000FFF7CAFC201CFFF7E7FC47E1311C01C916
:100AD00001220023FFF71AFC40E1564900230B8056
:100AE00030680222FFF712FC38E1524900230B80E4
:100AF00030680222FFF70AFC30E100224D4B1A80D9
:100B00003F4B1988502211404B4A117019880F220F
:100B10000A401A801B889BB2032B1FD8464B1B78B8
:100B2000002B0AD0364B1B8808335B01E418A279EE
:100B30009206D20F3F4B1A8009E0314B1B880833D5
:100B40005B01E418A279D206D20F3A4B1A803068C2
:100B5000384902220023FFF7D9FBFFE0201C0121C6
:100B6000FFF76AFCFAE0201C0121FFF765FCF5E0C5
:100B7000201CFFF771FCF1E0214B19887F22914383
:100B8000C9B22D4A117019880F220A401A801B4BD6
:100B90001B889BB2002B20D1194B1B889BB2002BCA
:100BA0001BD0174B1B889BB2032B16D8224B1B78EC
:100BB000002B07D0124B1B8808335B01E31820225F
:100BC0005A7106E00E4B1B8808335B01E3181022B4
:100BD0005A71201CFFF740FCC0E0201C0121FFF7E8
:100BE0002BFCBBE0201C0121FFF726FCB6E0C04631
:100BF000980000207D00002082000020840000205A
:100C00008600002080000020020300000103000095
:100C100021200000010B0000A12100002122000082
:100C2000A0190000040000207C19000080190000B9
:100C30008C1900007E0000207C000020201CFFF7A3
:100C40000BFC8BE0464B19887F229143C9B2454A81
:100C5000117019880F220A401A80434B1B889BB2DF
:100C6000002B58D13E4B1B889BB2002B53D03C4BE2
:100C70001B889BB2032B4ED83A4B1B78002B23D0FA
:100C8000374B1B8808335B01E3189B799A063ED5E6
:100C9000334B1A8808325201A218202111711B8887
:100CA00008335B01E318DB795A0630D52C4B1A88E0
:100CB00008325201A2184021D1711B8808335B0110
:100CC000E31802221A7122E0254B1B8808335B01CE
:100CD000E3189B79DA061AD5214B1A88083252019B
:100CE000A218102111711B8808335B01E318DB790E
:100CF0009A060CD51A4B1A8808325201A2182021E4
:100D0000D1711B8808335B01E31801221A71201C82
:100D1000FFF7A2FB22E0201C0121FFF78DFB1DE065
:100D2000201CFFF799FB19E03068104B1B889BB221
:100D30000822082B02D80D4B1A8892B20C490023C6
:100D4000FFF7E4FA0AE0084B1B887371201CFFF7D9
:100D500083FB03E0201C0121FFF76EFB03B0F0BD15
:100D6000860000207C0000208400002080000020FD
:100D70004800002000B583B00190054B186801A918
:100D800001220123FFF7C2FA012003B000BDC046D3
:100D90001C02002010B582B0054B18686C46073461
:100DA000211C0122FFF706FB207802B010BDC046CF
:100DB0001C02002008B50748FFF7CCF9031C0020EF
:100DC000002B06D0034B1A684823FF33D35C012065
:100DD000184008BD1C02002010B5031C0C1C044A5E
:100DE0001068191C221C0123FFF790FA201C10BD6B
:100DF0001C02002038B5051C0C1C0748FFF7AAF997
:100E00000023002806D0044B1868291C221CFFF779
:100E1000D1FA031C181C38BD1C020020F8B5051CB3
:100E20000F1C0C48FFF796F90023002810D0002F64
:100E30000BD03C1C074E3068291C221CFFF7BAFA65
:100E4000241A2D18002CF6D101E03B1C00E03B1CBD
:100E5000181CF8BD1C02002008B5C368081C111C32
:100E6000984780221205034B5A616422024B1A8074
:100E700008BDC046004400418C000020012806D176
:100E8000064A074B1A600122064B1A7004E000283C
:100E900002D1054A024B1A607047C046D4190000BF
:100EA0008C020020940000202C1A0000F0B585B0C0
:100EB000021C8C46244B1B78002B33D0042901D113
:100EC000036836E06346022B01D1038831E00378E2
:100ED0006246560004AA90190B38002E2ED10DE060
:100EE0003D1C1D40092D02D81543057001E0373522
:100EF00005701B0901380134B442F1D301AB302233
:100F00001A7078225A706246013252000A219954AE
:100F10009E190D21F1700D4908680232191CFFF766
:100F20009BFF0FE0094B1868111C6246FFF794FF06
:100F300008E06246560004AA90190B3800240F27D7
:100F40003022CDE705B0F0BD880000208C020020E3
:100F500072B6EFF30883044A1360036883F30888CA
:100F6000436818477047C04690020020104B1B880A
:100F70009BB2002B0AD00E4A1388013B9BB2138010
:100F8000002B03D1802212050A4B9A610A4B1B8861
:100F90009BB2002B0AD0084A1388013B9BB21380F6
:100FA000002B03D108219823024AD1507047C04634
:100FB0008C000020004400418A000020F0B55F460C
:100FC00056464D464446F0B48DB004A9CE4A0B1C9B
:100FD00031CA31C391CA91C3A0CAA0C3CB4A936896
:100FE0005B035B0F9B005B58C9490B60926892B230
:100FF000C8490A605343C8490B60C84B00221A60B5
:101000007A22C74B1A70C7488346C74C01340194F3
:101010005D462B681B69C54840219847002806D0CB
:1010200008219423C24AD1506422C24B1A80C24B79
:101030001860BE4AC14B1A600022C14B1A600028DA
:10104000E6D0BE4C27683B78FF2B00D160E2232B13
:1010500000D02EE2BB4B1B78002B05D0B14B18689B
:10106000B9490222FFF7F8FEAD4B1B78532B47D14D
:10107000B14B1B68B24A1268934221D9AF4801684C
:10108000013101600132AE4802609A1AAF4B186814
:10109000824202D2AE4B1A6001E0AD4B18609F4B0A
:1010A0001868AB4D2A6800F045FC2B68A44A10680C
:1010B00019181160A14A1568E9181160A54A137042
:1010C0009F4B1A68013A1A609C4B1A68013A1A60E1
:1010D000A04B1B789D4A11688B420FD2914A12682F
:1010E0008E480068C91A92699047002806D00821E6
:1010F00094238F4AD15064228E4B1A80C046C7E198
:10110000522B0FD1874B1B68844A10688F4A116895
:101110005B69984780221205854B5A6164228E4B89
:101120001A80B5E14F2B05D17C4B1B68874A1268AA
:101130001A70ADE1482B05D1784B1B68834A1268C1
:101140001A80A5E1572B05D1744B1B687F4A1268A2
:101150001A609DE16F2B05D1704B18680121FFF7D4
:10116000A5FE95E1682B08D178486C4B1B681B885D
:1011700003600221FFF79AFE8AE1772B08D1674BC3
:101180001B681B68714803600421FFF78FFE7FE135
:10119000472B13D16D4B1868FFF7DAFE6F4B1B68B6
:1011A00083F3088862B66E4B1B78002B00D16FE189
:1011B0005C4B1B681B680620984769E1542B09D1DA
:1011C0000122604B1A70574B18685F490222FFF7E3
:1011D00043FE5DE14E2B0DD15A4B1B78002B05D100
:1011E000504B186858490222FFF736FE0022554B33
:1011F0001A704DE1562B58D14A4D286859490122A1
:10120000FFF72AFE286858490322FFF725FE574EAC
:101210002868311C0122FFF71FFE286854490D225F
:10122000FFF71AFE2868311C0122FFF715FE002285
:10123000434B1A60414B019F1F603B4D2B78002BA5
:1012400000D173E13E493D4A0B6801330B601368DE
:10125000581C10601B78002BF6D1324E384D306888
:1012600031492A68FFF7F8FD306840490122FFF74D
:10127000F3FD00232B603F4A304B1A6067E10B6897
:1012800001330B601368581C10601B78002BF6D1DB
:10129000244D2B4B1A6828683749FFF7DDFD286875
:1012A00029490222FFF7D8FDF2E0582B1FD1274B26
:1012B0001868194B1B68984212D2144A2F4FBC462B
:1012C0000121134E144D4308D36163461380137DEF
:1012D0001942FCD03768BB00C0182B689842F2D383
:1012E000104B186826490322FFF7B6FDD0E0592BB2
:1012F00000D094E0154B1E68002E45D1074B1A68AC
:10130000204B1A6084E0C046B41900000040004140
:10131000440200203C020020380200208802002005
:10132000340200208C020020001A00004802002035
:10133000004400418A0000202C02002030020020DE
:101340004002002088000020F419000094020020D0
:1013500098020020280200208C000020900200202B
:1013600094000020F8190000F0190000FC1900009A
:10137000481A00000D1A00000C1A000002A5FFFF19
:10138000181A000090000020B608724B1D68724BBE
:101390001F68724B5A6880218A435A60002E37D0EA
:1013A000191C01206E4A92460023994690466D4AC8
:1013B0000A800B7D1842FCD053461B68032B16D9BC
:1013C000002E16D04A464B460097B4462E1CB758FE
:1013D000009DAF50013347463F68BD08AB420AD27B
:1013E00004326345F3D1009F351C664606E04B4648
:1013F00004E04B4602E0009F351C66465A4A0A80CC
:101400000A7D1042FCD09A00BF18AD18F61ACED152
:10141000564B186856490322FFF71EFD38E05A2B39
:1014200036D14D4B1F68534B1B68002B0CD03D1C15
:10143000FF180026311C287800F0F6F8011C013551
:10144000BD42F8D1061C00E00026484B18684A4906
:101450000122FFF701FD311C6B460F336E46073644
:101460000F252A1C0A400909101C3030092A00DD0A
:1014700007301870013BB342F3D13C4D286802A9F4
:101480000822FFF7E9FC28683C490322FFF7E4FC47
:101490007A223B4B1A700022364B1A60394B1B786C
:1014A000002B35D0314B186837490122FFF7D4FCA7
:1014B0002EE01A1C303A092A06D82E4A303B15680D
:1014C00029010B43136023E01A1C413A052A06D870
:1014D000284A373B176839010B43136018E01A1C80
:1014E000613A052A06D8234A573B106801010B438D
:1014F00013600DE02C2B06D11E4B174A19681160A2
:1015000000221A6004E01E4A13700022194B1A6070
:101510001E4A1368013313601D4A116801311160BE
:101520001C4A1268934200D28CE571E50F4E174DAC
:10153000306819492A68FFF78FFC30681749012283
:10154000FFF78AFC00232B60154A114B1A600F49E4
:101550000F4A94E6900000208802002000400041DD
:101560004402002044A5FFFF04A5FFFF8C020020D9
:101570001C1A000094020020201A0000241A000007
:101580003402002088000020281A000040020020B9
:10159000300200202C020020001A0000FC1900007C
:1015A0000D1A000008B5C1B20248FEF7B7FD0120D0
:1015B00008BDC04600080042024B187E4007C00F1D
:1015C0007047C0460008004208B5FFF7F5FF002845
:1015D000FBD00248FEF7A8FD08BDC0460008004247
:1015E00008B5FFF7E9FF0023002805D0FFF7ECFF5F
:1015F000031C233B5A425341181C08BD70B5041C00
:101600000E1E06D045182078FFF7CCFF0134AC42FF
:10161000F9D1301C70BDC04610B5041CFFF7D4FFD3
:101620002070012010BDC0460B0A5840400009023E
:10163000024BC05A484080B27047C046581A00005A
:10164000F0B55F4656464D46E0B4061C8946002973
:1016500028D00024002718498A46184A9346FFF7E5
:10166000B3FFC5B251460B78002B1DD1281C391C85
:10167000FFF7DAFF071C5A461388002B03D1104BE3
:101680001B78002B09D0731C35701E1C494680291D
:1016900003D10A490A88013A0A800134A4B24C45B0
:1016A000DDD103E0002002E0012000E0381C1CBC7A
:1016B00091469A46A346F0BD240300209E020020D6
:1016C00025030020F0B55F4656464D464446F0B42B
:1016D00083B001908B4600224A4B1A70002903D137
:1016E0000122494B1A700CE0484B19800022464BEE
:1016F0001A705A46520604D05B4680337F229343C9
:101700009B46404D2C1C0026FFF75EFF2B78002BDC
:101710000BD02670FFF758FFC0B22378002B05D0FE
:101720000022384B1A70002563E0C0B2432823D052
:1017300071285DD01528E7D11EE00022314B1A70C8
:1017400057E0FF231840062809D1009B0133DBB284
:10175000009380235B429B440199803101915A465A
:10176000002A10D10420FFF71DFFFFF72DFF0022F4
:10177000254B1A7001253CE001230093234988463C
:101780008946214B9A460120FFF70CFF0098FFF78E
:1017900009FF0099C843C0B2FFF704FF019E8025EE
:1017A000002742461388002B04D151460A780024B2
:1017B000002A04D03478013B4A4613800136201CAD
:1017C000FFF7F0FE201C391CFFF72EFF071C013D20
:1017D000002DE6D1000AC0B2FFF7E4FEF8B2FFF731
:1017E000E1FEFFF7F1FE074B1B78002BA9D0A4E721
:1017F0000025281C03B03CBC90469946A246AB4647
:10180000F0BDC04624030020250300209E020020D6
:10181000F0B557464E46C0B483B0061C0022414B7B
:101820001A70002903D101223F4B1A7004E03F4B8C
:10183000198000223C4B1A7064253D4F4320FFF76E
:10184000B1FE3C1C00E0013CFFF7B6FE002802D1CF
:10185000002CF8D101E0002C03D1013D002DEDD189
:1018600059E001242F4D2F1CFFF7AEFE2A78002AE5
:1018700004D000222B4B1A7000254CE0FF230340BC
:10188000012B02D0042B39D03BE001A80221FFF745
:10189000D7FE301C8021FFF7D3FE81463B78002B1A
:1018A00034D1FFF791FE000280B28246FFF78CFE32
:1018B000504480B21B4A1378012B27D0814509D1AF
:1018C00001AB1B78A34205D1E34301AA5278DBB2F6
:1018D0009A4203D01820FFF765FE17E00620FFF7B5
:1018E00061FE104B1B78002B04D000220D4B1A70A8
:1018F000002510E0631CDCB28036B5E70620FFF758
:1019000051FE0022084B1A70012504E0054B1B789C
:10191000002BF6D0E9E7281C03B00CBC91469A4690
:10192000F0BDC04624030020250300209E020020B5
:1019300000350C0010B50023934203D0CC5CC45496
:101940000133F9E710BD031C8218934202D01970CD
:101950000133FAE770470023C25C0133002AFBD150
:10196000581E7047F8B5C046F8BC08BC9E46704784
:10197000F8B5C046F8BC08BC9E467047040309048D
:1019800041726475696E6F204C4C430041726475FE
:10199000696E6F2035472D4E422D496F540000006F
:1019A000120100020200004041234D00000201022A
:1019B00000010000080000001000000020000000EE
:1019C0004000000080000000000100000002000054
:1019D00000040000A5150000C9150000B91500009D
:1019E000FD15000019160000C516000011180000B2
:1019F000322E30000A0D00007600000020000000AA
:101A00004A756E20323620323032310031303A336E
:101A1000373A303300000000580A0D00590A0D0013
:101A20005A000000230A0D003E000000750D000062
:101A3000950D0000B50D0000D90D0000F50D00005A
:101A4000D90D00001D0E00005B41726475696E6F58
:101A50003A58595A5D0000000000211042206330BE
:101A60008440A550C660E770088129914AA16BB1F6
:101A70008CC1ADD1CEE1EFF131121002733252229E
:101A8000B5529442F772D662399318837BB35AA346
:101A9000BDD39CC3FFF3DEE362244334200401146E
:101AA000E664C774A44485546AA54BB52885099596
:101AB000EEE5CFF5ACC58DD553367226111630063E
:101AC000D776F6669556B4465BB77AA719973887E6
:101AD000DFF7FEE79DD7BCC7C448E5588668A778FE
:101AE0004008611802282338CCC9EDD98EE9AFF936
:101AF000488969990AA92BB9F55AD44AB77A966ADE
:101B0000711A500A333A122AFDDBDCCBBFFB9EEB85
:101B1000799B588B3BBB1AABA66C877CE44CC55CAD
:101B2000222C033C600C411CAEED8FFDECCDCDDDD5
:101B30002AAD0BBD688D499D977EB66ED55EF44E7D
:101B4000133E322E511E700E9FFFBEEFDDDFFCCF25
:101B50001BBF3AAF599F788F8891A981CAB1EBA179
:101B60000CD12DC14EF16FE18010A100C230E320F5
:101B70000450254046706760B9839893FBA3DAB39D
:101B80003DC31CD37FE35EF3B1029012F322D23245
:101B90003542145277625672EAB5CBA5A89589856D
:101BA0006EF54FE52CD50DC5E234C324A014810495
:101BB0006674476424540544DBA7FAB79987B8973D
:101BC0005FE77EF71DC73CD7D326F2369106B016E5
:101BD00057667676154634564CD96DC90EF92FE9FD
:101BE000C899E9898AB9ABA9445865480678276835
:101BF000C018E1088238A3287DCB5CDB3FEB1EFBDD
:101C0000F98BD89BBBAB9ABB754A545A376A167A84
:101C1000F10AD01AB32A923A2EFD0FED6CDD4DCDAC
:101C2000AABD8BADE89DC98D267C076C645C454CD4
:101C3000A23C832CE01CC10C1FEF3EFF5DCF7CDF7C
:101C40009BAFBABFD98FF89F176E367E554E745E24
:0C1C5000932EB23ED10EF01E00000000EA
:101C5C000114000009024300020100803209040053
:101C6C0000010202000005240010010424020005FA
:101C7C00240600010524010001070583030800FF69
:101C8C0009040100020A000000070581024000005F
:101C9C00070502024000000000C20100000008001D
:0C1CAC0069000000410000000000000082
:0400000300000639BA
:00000001FF
